{
  "_format": "hh-sol-artifact-1",
  "contractName": "NFTixBooth",
  "sourceName": "contracts/NFTixBooth.sol",
  "abi": [
    {
      "inputs": [],
      "stateMutability": "nonpayable",
      "type": "constructor"
    },
    {
      "anonymous": false,
      "inputs": [
        {
          "indexed": true,
          "internalType": "address",
          "name": "owner",
          "type": "address"
        },
        {
          "indexed": true,
          "internalType": "address",
          "name": "approved",
          "type": "address"
        },
        {
          "indexed": true,
          "internalType": "uint256",
          "name": "tokenId",
          "type": "uint256"
        }
      ],
      "name": "Approval",
      "type": "event"
    },
    {
      "anonymous": false,
      "inputs": [
        {
          "indexed": true,
          "internalType": "address",
          "name": "owner",
          "type": "address"
        },
        {
          "indexed": true,
          "internalType": "address",
          "name": "operator",
          "type": "address"
        },
        {
          "indexed": false,
          "internalType": "bool",
          "name": "approved",
          "type": "bool"
        }
      ],
      "name": "ApprovalForAll",
      "type": "event"
    },
    {
      "anonymous": false,
      "inputs": [
        {
          "indexed": true,
          "internalType": "address",
          "name": "previousOwner",
          "type": "address"
        },
        {
          "indexed": true,
          "internalType": "address",
          "name": "newOwner",
          "type": "address"
        }
      ],
      "name": "OwnershipTransferred",
      "type": "event"
    },
    {
      "anonymous": false,
      "inputs": [
        {
          "indexed": true,
          "internalType": "address",
          "name": "from",
          "type": "address"
        },
        {
          "indexed": true,
          "internalType": "address",
          "name": "to",
          "type": "address"
        },
        {
          "indexed": true,
          "internalType": "uint256",
          "name": "tokenId",
          "type": "uint256"
        }
      ],
      "name": "Transfer",
      "type": "event"
    },
    {
      "inputs": [
        {
          "internalType": "address",
          "name": "to",
          "type": "address"
        },
        {
          "internalType": "uint256",
          "name": "tokenId",
          "type": "uint256"
        }
      ],
      "name": "approve",
      "outputs": [],
      "stateMutability": "nonpayable",
      "type": "function"
    },
    {
      "inputs": [],
      "name": "availableTicketCount",
      "outputs": [
        {
          "internalType": "uint256",
          "name": "",
          "type": "uint256"
        }
      ],
      "stateMutability": "view",
      "type": "function"
    },
    {
      "inputs": [],
      "name": "availableTickets",
      "outputs": [
        {
          "internalType": "uint256",
          "name": "",
          "type": "uint256"
        }
      ],
      "stateMutability": "view",
      "type": "function"
    },
    {
      "inputs": [
        {
          "internalType": "address",
          "name": "owner",
          "type": "address"
        }
      ],
      "name": "balanceOf",
      "outputs": [
        {
          "internalType": "uint256",
          "name": "",
          "type": "uint256"
        }
      ],
      "stateMutability": "view",
      "type": "function"
    },
    {
      "inputs": [],
      "name": "closeSale",
      "outputs": [],
      "stateMutability": "nonpayable",
      "type": "function"
    },
    {
      "inputs": [
        {
          "internalType": "address",
          "name": "addy",
          "type": "address"
        }
      ],
      "name": "confirmOwnership",
      "outputs": [
        {
          "internalType": "bool",
          "name": "",
          "type": "bool"
        }
      ],
      "stateMutability": "view",
      "type": "function"
    },
    {
      "inputs": [
        {
          "internalType": "uint256",
          "name": "tokenId",
          "type": "uint256"
        }
      ],
      "name": "getApproved",
      "outputs": [
        {
          "internalType": "address",
          "name": "",
          "type": "address"
        }
      ],
      "stateMutability": "view",
      "type": "function"
    },
    {
      "inputs": [
        {
          "internalType": "address",
          "name": "",
          "type": "address"
        },
        {
          "internalType": "uint256",
          "name": "",
          "type": "uint256"
        }
      ],
      "name": "holderTokenIDs",
      "outputs": [
        {
          "internalType": "uint256",
          "name": "",
          "type": "uint256"
        }
      ],
      "stateMutability": "view",
      "type": "function"
    },
    {
      "inputs": [
        {
          "internalType": "address",
          "name": "owner",
          "type": "address"
        },
        {
          "internalType": "address",
          "name": "operator",
          "type": "address"
        }
      ],
      "name": "isApprovedForAll",
      "outputs": [
        {
          "internalType": "bool",
          "name": "",
          "type": "bool"
        }
      ],
      "stateMutability": "view",
      "type": "function"
    },
    {
      "inputs": [],
      "name": "mint",
      "outputs": [],
      "stateMutability": "payable",
      "type": "function"
    },
    {
      "inputs": [],
      "name": "mintPrice",
      "outputs": [
        {
          "internalType": "uint256",
          "name": "",
          "type": "uint256"
        }
      ],
      "stateMutability": "view",
      "type": "function"
    },
    {
      "inputs": [],
      "name": "name",
      "outputs": [
        {
          "internalType": "string",
          "name": "",
          "type": "string"
        }
      ],
      "stateMutability": "view",
      "type": "function"
    },
    {
      "inputs": [],
      "name": "openSale",
      "outputs": [],
      "stateMutability": "nonpayable",
      "type": "function"
    },
    {
      "inputs": [],
      "name": "owner",
      "outputs": [
        {
          "internalType": "address",
          "name": "",
          "type": "address"
        }
      ],
      "stateMutability": "view",
      "type": "function"
    },
    {
      "inputs": [
        {
          "internalType": "uint256",
          "name": "tokenId",
          "type": "uint256"
        }
      ],
      "name": "ownerOf",
      "outputs": [
        {
          "internalType": "address",
          "name": "",
          "type": "address"
        }
      ],
      "stateMutability": "view",
      "type": "function"
    },
    {
      "inputs": [],
      "name": "renounceOwnership",
      "outputs": [],
      "stateMutability": "nonpayable",
      "type": "function"
    },
    {
      "inputs": [
        {
          "internalType": "address",
          "name": "from",
          "type": "address"
        },
        {
          "internalType": "address",
          "name": "to",
          "type": "address"
        },
        {
          "internalType": "uint256",
          "name": "tokenId",
          "type": "uint256"
        }
      ],
      "name": "safeTransferFrom",
      "outputs": [],
      "stateMutability": "nonpayable",
      "type": "function"
    },
    {
      "inputs": [
        {
          "internalType": "address",
          "name": "from",
          "type": "address"
        },
        {
          "internalType": "address",
          "name": "to",
          "type": "address"
        },
        {
          "internalType": "uint256",
          "name": "tokenId",
          "type": "uint256"
        },
        {
          "internalType": "bytes",
          "name": "data",
          "type": "bytes"
        }
      ],
      "name": "safeTransferFrom",
      "outputs": [],
      "stateMutability": "nonpayable",
      "type": "function"
    },
    {
      "inputs": [],
      "name": "saleIsActive",
      "outputs": [
        {
          "internalType": "bool",
          "name": "",
          "type": "bool"
        }
      ],
      "stateMutability": "view",
      "type": "function"
    },
    {
      "inputs": [
        {
          "internalType": "address",
          "name": "operator",
          "type": "address"
        },
        {
          "internalType": "bool",
          "name": "approved",
          "type": "bool"
        }
      ],
      "name": "setApprovalForAll",
      "outputs": [],
      "stateMutability": "nonpayable",
      "type": "function"
    },
    {
      "inputs": [
        {
          "internalType": "bytes4",
          "name": "interfaceId",
          "type": "bytes4"
        }
      ],
      "name": "supportsInterface",
      "outputs": [
        {
          "internalType": "bool",
          "name": "",
          "type": "bool"
        }
      ],
      "stateMutability": "view",
      "type": "function"
    },
    {
      "inputs": [],
      "name": "symbol",
      "outputs": [
        {
          "internalType": "string",
          "name": "",
          "type": "string"
        }
      ],
      "stateMutability": "view",
      "type": "function"
    },
    {
      "inputs": [
        {
          "internalType": "uint256",
          "name": "tokenId",
          "type": "uint256"
        }
      ],
      "name": "tokenURI",
      "outputs": [
        {
          "internalType": "string",
          "name": "",
          "type": "string"
        }
      ],
      "stateMutability": "view",
      "type": "function"
    },
    {
      "inputs": [],
      "name": "totalTicketCount",
      "outputs": [
        {
          "internalType": "uint256",
          "name": "",
          "type": "uint256"
        }
      ],
      "stateMutability": "view",
      "type": "function"
    },
    {
      "inputs": [],
      "name": "totalTickets",
      "outputs": [
        {
          "internalType": "uint256",
          "name": "",
          "type": "uint256"
        }
      ],
      "stateMutability": "view",
      "type": "function"
    },
    {
      "inputs": [
        {
          "internalType": "address",
          "name": "from",
          "type": "address"
        },
        {
          "internalType": "address",
          "name": "to",
          "type": "address"
        },
        {
          "internalType": "uint256",
          "name": "tokenId",
          "type": "uint256"
        }
      ],
      "name": "transferFrom",
      "outputs": [],
      "stateMutability": "nonpayable",
      "type": "function"
    },
    {
      "inputs": [
        {
          "internalType": "address",
          "name": "newOwner",
          "type": "address"
        }
      ],
      "name": "transferOwnership",
      "outputs": [],
      "stateMutability": "nonpayable",
      "type": "function"
    }
  ],
  "bytecode": "0x60806040526009805460ff19169055600a808055600b5567011c37937e080000600c553480156200002f57600080fd5b50604080518082018252600581526409c8ca8d2f60db1b60208083019182528351808501909452600484526309c8ca8b60e31b9084015281519192916200007991600091620001c8565b5080516200008f906001906020840190620001c8565b505050620000ac620000a6620000f560201b60201c565b620000f9565b620000c360086200014b60201b62000d191760201c565b620000ef620000de60086200015460201b62000d221760201c565b6200015860201b62000d261760201c565b620002ab565b3390565b600780546001600160a01b038381166001600160a01b0319831681179093556040519116919082907f8be0079c531659141344cd1fd0a4f28419497f9722a3daafe3b4186f6b6457e090600090a35050565b80546001019055565b5490565b620001a4816040516024016200017091815260200190565b60408051601f198184030181529190526020810180516001600160e01b0390811663f82c50f160e01b17909152620001a716565b50565b80516a636f6e736f6c652e6c6f67602083016000808483855afa5050505050565b828054620001d6906200026e565b90600052602060002090601f016020900481019282620001fa576000855562000245565b82601f106200021557805160ff191683800117855562000245565b8280016001018555821562000245579182015b828111156200024557825182559160200191906001019062000228565b506200025392915062000257565b5090565b5b8082111562000253576000815560010162000258565b600181811c908216806200028357607f821691505b60208210811415620002a557634e487b7160e01b600052602260045260246000fd5b50919050565b6120a980620002bb6000396000f3fe60806040526004361061019c5760003560e01c806370a08231116100ec578063b88d4fde1161008a578063e985e9c511610064578063e985e9c514610465578063eb8d2444146104ae578063ee55efee146104c8578063f2fde38b146104dd57600080fd5b8063b88d4fde1461040f578063c87b56dd1461042f578063dd11247e1461044f57600080fd5b806382ac0bb8116100c657806382ac0bb81461039c5780638da5cb5b146103bc57806395d89b41146103da578063a22cb465146103ef57600080fd5b806370a082311461032f578063715018a61461034f57806380f2abe31461036457600080fd5b8063167ff46f116101595780633d721ecd116101335780633d721ecd146102c457806342842e0e146102d95780636352211e146102f95780636817c76c1461031957600080fd5b8063167ff46f1461027957806323b872dd1461028e5780633cfa7e01146102ae57600080fd5b806301ffc9a7146101a157806306fdde03146101d6578063081812fc146101f8578063095ea7b3146102305780631249c58b1461025257806314558fab1461025a575b600080fd5b3480156101ad57600080fd5b506101c16101bc366004611b27565b6104fd565b60405190151581526020015b60405180910390f35b3480156101e257600080fd5b506101eb61054f565b6040516101cd9190611db7565b34801561020457600080fd5b50610218610213366004611b5f565b6105e1565b6040516001600160a01b0390911681526020016101cd565b34801561023c57600080fd5b5061025061024b366004611afe565b610608565b005b610250610723565b34801561026657600080fd5b50600a545b6040519081526020016101cd565b34801561028557600080fd5b50610250610997565b34801561029a57600080fd5b506102506102a93660046119b4565b6109ae565b3480156102ba57600080fd5b5061026b600b5481565b3480156102d057600080fd5b50600b5461026b565b3480156102e557600080fd5b506102506102f43660046119b4565b6109df565b34801561030557600080fd5b50610218610314366004611b5f565b6109fa565b34801561032557600080fd5b5061026b600c5481565b34801561033b57600080fd5b5061026b61034a366004611968565b610a5a565b34801561035b57600080fd5b50610250610ae0565b34801561037057600080fd5b506101c161037f366004611968565b6001600160a01b03166000908152600d6020526040902054151590565b3480156103a857600080fd5b5061026b6103b7366004611afe565b610af4565b3480156103c857600080fd5b506007546001600160a01b0316610218565b3480156103e657600080fd5b506101eb610b25565b3480156103fb57600080fd5b5061025061040a366004611ac4565b610b34565b34801561041b57600080fd5b5061025061042a3660046119ef565b610b43565b34801561043b57600080fd5b506101eb61044a366004611b5f565b610b7b565b34801561045b57600080fd5b5061026b600a5481565b34801561047157600080fd5b506101c1610480366004611982565b6001600160a01b03918216600090815260056020908152604080832093909416825291909152205460ff1690565b3480156104ba57600080fd5b506009546101c19060ff1681565b3480156104d457600080fd5b50610250610c8c565b3480156104e957600080fd5b506102506104f8366004611968565b610ca0565b60006001600160e01b031982166380ac58cd60e01b148061052e57506001600160e01b03198216635b5e139f60e01b145b8061054957506301ffc9a760e01b6001600160e01b03198316145b92915050565b60606000805461055e90611f26565b80601f016020809104026020016040519081016040528092919081815260200182805461058a90611f26565b80156105d75780601f106105ac576101008083540402835291602001916105d7565b820191906000526020600020905b8154815290600101906020018083116105ba57829003601f168201915b5050505050905090565b60006105ec82610d6b565b506000908152600460205260409020546001600160a01b031690565b6000610613826109fa565b9050806001600160a01b0316836001600160a01b031614156106865760405162461bcd60e51b815260206004820152602160248201527f4552433732313a20617070726f76616c20746f2063757272656e74206f776e656044820152603960f91b60648201526084015b60405180910390fd5b336001600160a01b03821614806106a257506106a28133610480565b6107145760405162461bcd60e51b815260206004820152603e60248201527f4552433732313a20617070726f76652063616c6c6572206973206e6f7420746f60448201527f6b656e206f776e6572206e6f7220617070726f76656420666f7220616c6c0000606482015260840161067d565b61071e8383610dca565b505050565b6000600b541161076a5760405162461bcd60e51b81526020600482015260126024820152714e6f7420656e6f756768207469636b65747360701b604482015260640161067d565b600c543410156107b35760405162461bcd60e51b81526020600482015260146024820152734e6f7420656e6f756768206d697420707269636560601b604482015260640161067d565b60095460ff166108055760405162461bcd60e51b815260206004820152601960248201527f205469636b65747320617265206e6f74206f6e2073616c652100000000000000604482015260640161067d565b61080d61188c565b6040518060800160405280604b8152602001611fe9604b9139815260085461083990610e38565b610e38565b6020828101918252604080518082018252600d81526c1e17ba32bc3a1f1e17b9bb339f60991b81840152818501819052845193519151600094610880949093929101611bd2565b6040516020818303038152906040529050600061089c82610f52565b90506108cc6040518060400160405280600c81526020016b656e636f646564496d61676560a01b815250826110b4565b60006109036108dd61083460085490565b836040516020016108ef929190611c5a565b604051602081830303815290604052610f52565b90506000816040516020016109189190611c15565b60408051601f198184030181528282019091526008825267746f6b656e55524960c01b6020830152915061094c90826110b4565b61095e3361095960085490565b6110f9565b61097061096a60085490565b82611113565b61097e600880546001019055565b6001600b5461098d9190611ee3565b600b555050505050565b61099f6111ad565b6009805460ff19166001179055565b6109b83382611207565b6109d45760405162461bcd60e51b815260040161067d90611e4a565b61071e838383611285565b61071e83838360405180602001604052806000815250610b43565b6000818152600260205260408120546001600160a01b0316806105495760405162461bcd60e51b8152602060048201526018602482015277115490cdcc8c4e881a5b9d985b1a59081d1bdad95b88125160421b604482015260640161067d565b60006001600160a01b038216610ac45760405162461bcd60e51b815260206004820152602960248201527f4552433732313a2061646472657373207a65726f206973206e6f7420612076616044820152683634b21037bbb732b960b91b606482015260840161067d565b506001600160a01b031660009081526003602052604090205490565b610ae86111ad565b610af26000611421565b565b600d6020528160005260406000208181548110610b1057600080fd5b90600052602060002001600091509150505481565b60606001805461055e90611f26565b610b3f338383611473565b5050565b610b4d3383611207565b610b695760405162461bcd60e51b815260040161067d90611e4a565b610b7584848484611542565b50505050565b6060610b8682610d6b565b60008281526006602052604081208054610b9f90611f26565b80601f0160208091040260200160405190810160405280929190818152602001828054610bcb90611f26565b8015610c185780601f10610bed57610100808354040283529160200191610c18565b820191906000526020600020905b815481529060010190602001808311610bfb57829003601f168201915b505050505090506000610c3660408051602081019091526000815290565b9050805160001415610c49575092915050565b815115610c7b578082604051602001610c63929190611ba3565b60405160208183030381529060405292505050919050565b610c8484611575565b949350505050565b610c946111ad565b6009805460ff19169055565b610ca86111ad565b6001600160a01b038116610d0d5760405162461bcd60e51b815260206004820152602660248201527f4f776e61626c653a206e6577206f776e657220697320746865207a65726f206160448201526564647265737360d01b606482015260840161067d565b610d1681611421565b50565b80546001019055565b5490565b610d1681604051602401610d3c91815260200190565b60408051601f198184030181529190526020810180516001600160e01b031663f82c50f160e01b1790526115e9565b6000818152600260205260409020546001600160a01b0316610d165760405162461bcd60e51b8152602060048201526018602482015277115490cdcc8c4e881a5b9d985b1a59081d1bdad95b88125160421b604482015260640161067d565b600081815260046020526040902080546001600160a01b0319166001600160a01b0384169081179091558190610dff826109fa565b6001600160a01b03167f8c5be1e5ebec7d5bd14f71427d1e84f3dd0314c0f7b2291e5b200ac8c7c3b92560405160405180910390a45050565b606081610e5c5750506040805180820190915260018152600360fc1b602082015290565b8160005b8115610e865780610e7081611f61565b9150610e7f9050600a83611eb0565b9150610e60565b60008167ffffffffffffffff811115610eaf57634e487b7160e01b600052604160045260246000fd5b6040519080825280601f01601f191660200182016040528015610ed9576020820181803683370190505b5090505b8415610c8457610eee600183611ee3565b9150610efb600a86611f7c565b610f06906030611e98565b60f81b818381518110610f2957634e487b7160e01b600052603260045260246000fd5b60200101906001600160f81b031916908160001a905350610f4b600a86611eb0565b9450610edd565b6060815160001415610f7257505060408051602081019091526000815290565b60006040518060600160405280604081526020016120346040913990506000600384516002610fa19190611e98565b610fab9190611eb0565b610fb6906004611ec4565b67ffffffffffffffff811115610fdc57634e487b7160e01b600052604160045260246000fd5b6040519080825280601f01601f191660200182016040528015611006576020820181803683370190505b509050600182016020820185865187015b80821015611072576003820191508151603f8160121c168501518453600184019350603f81600c1c168501518453600184019350603f8160061c168501518453600184019350603f8116850151845350600183019250611017565b505060038651066001811461108e57600281146110a1576110a9565b603d6001830353603d60028303536110a9565b603d60018303535b509195945050505050565b610b3f82826040516024016110ca929190611dca565b60408051601f198184030181529190526020810180516001600160e01b0316634b5c427760e01b1790526115e9565b610b3f82826040518060200160405280600081525061160a565b6000828152600260205260409020546001600160a01b031661118e5760405162461bcd60e51b815260206004820152602e60248201527f45524337323155524953746f726167653a2055524920736574206f66206e6f6e60448201526d32bc34b9ba32b73a103a37b5b2b760911b606482015260840161067d565b6000828152600660209081526040909120825161071e928401906118b3565b6007546001600160a01b03163314610af25760405162461bcd60e51b815260206004820181905260248201527f4f776e61626c653a2063616c6c6572206973206e6f7420746865206f776e6572604482015260640161067d565b600080611213836109fa565b9050806001600160a01b0316846001600160a01b0316148061125a57506001600160a01b0380821660009081526005602090815260408083209388168352929052205460ff165b80610c845750836001600160a01b0316611273846105e1565b6001600160a01b031614949350505050565b826001600160a01b0316611298826109fa565b6001600160a01b0316146112fc5760405162461bcd60e51b815260206004820152602560248201527f4552433732313a207472616e736665722066726f6d20696e636f72726563742060448201526437bbb732b960d91b606482015260840161067d565b6001600160a01b03821661135e5760405162461bcd60e51b8152602060048201526024808201527f4552433732313a207472616e7366657220746f20746865207a65726f206164646044820152637265737360e01b606482015260840161067d565b611369600082610dca565b6001600160a01b0383166000908152600360205260408120805460019290611392908490611ee3565b90915550506001600160a01b03821660009081526003602052604081208054600192906113c0908490611e98565b909155505060008181526002602052604080822080546001600160a01b0319166001600160a01b0386811691821790925591518493918716917fddf252ad1be2c89b69c2b068fc378daa952ba7f163c4a11628f55a4df523b3ef91a4505050565b600780546001600160a01b038381166001600160a01b0319831681179093556040519116919082907f8be0079c531659141344cd1fd0a4f28419497f9722a3daafe3b4186f6b6457e090600090a35050565b816001600160a01b0316836001600160a01b031614156114d55760405162461bcd60e51b815260206004820152601960248201527f4552433732313a20617070726f766520746f2063616c6c657200000000000000604482015260640161067d565b6001600160a01b03838116600081815260056020908152604080832094871680845294825291829020805460ff191686151590811790915591519182527f17307eab39ab6107e8899845ad3d59bd9653f200f220920489ca2b5937696c31910160405180910390a3505050565b61154d848484611285565b6115598484848461163d565b610b755760405162461bcd60e51b815260040161067d90611df8565b606061158082610d6b565b600061159760408051602081019091526000815290565b905060008151116115b757604051806020016040528060008152506115e2565b806115c184610e38565b6040516020016115d2929190611ba3565b6040516020818303038152906040525b9392505050565b80516a636f6e736f6c652e6c6f67602083016000808483855afa5050505050565b611614838361174a565b611621600084848461163d565b61071e5760405162461bcd60e51b815260040161067d90611df8565b60006001600160a01b0384163b1561173f57604051630a85bd0160e11b81526001600160a01b0385169063150b7a0290611681903390899088908890600401611d7a565b602060405180830381600087803b15801561169b57600080fd5b505af19250505080156116cb575060408051601f3d908101601f191682019092526116c891810190611b43565b60015b611725573d8080156116f9576040519150601f19603f3d011682016040523d82523d6000602084013e6116fe565b606091505b50805161171d5760405162461bcd60e51b815260040161067d90611df8565b805181602001fd5b6001600160e01b031916630a85bd0160e11b149050610c84565b506001949350505050565b6001600160a01b0382166117a05760405162461bcd60e51b815260206004820181905260248201527f4552433732313a206d696e7420746f20746865207a65726f2061646472657373604482015260640161067d565b6000818152600260205260409020546001600160a01b0316156118055760405162461bcd60e51b815260206004820152601c60248201527f4552433732313a20746f6b656e20616c7265616479206d696e74656400000000604482015260640161067d565b6001600160a01b038216600090815260036020526040812080546001929061182e908490611e98565b909155505060008181526002602052604080822080546001600160a01b0319166001600160a01b03861690811790915590518392907fddf252ad1be2c89b69c2b068fc378daa952ba7f163c4a11628f55a4df523b3ef908290a45050565b60405180606001604052806003905b606081526020019060019003908161189b5790505090565b8280546118bf90611f26565b90600052602060002090601f0160209004810192826118e15760008555611927565b82601f106118fa57805160ff1916838001178555611927565b82800160010185558215611927579182015b8281111561192757825182559160200191906001019061190c565b50611933929150611937565b5090565b5b808211156119335760008155600101611938565b80356001600160a01b038116811461196357600080fd5b919050565b600060208284031215611979578081fd5b6115e28261194c565b60008060408385031215611994578081fd5b61199d8361194c565b91506119ab6020840161194c565b90509250929050565b6000806000606084860312156119c8578081fd5b6119d18461194c565b92506119df6020850161194c565b9150604084013590509250925092565b60008060008060808587031215611a04578081fd5b611a0d8561194c565b9350611a1b6020860161194c565b925060408501359150606085013567ffffffffffffffff80821115611a3e578283fd5b818701915087601f830112611a51578283fd5b813581811115611a6357611a63611fbc565b604051601f8201601f19908116603f01168101908382118183101715611a8b57611a8b611fbc565b816040528281528a6020848701011115611aa3578586fd5b82602086016020830137918201602001949094529598949750929550505050565b60008060408385031215611ad6578182fd5b611adf8361194c565b915060208301358015158114611af3578182fd5b809150509250929050565b60008060408385031215611b10578182fd5b611b198361194c565b946020939093013593505050565b600060208284031215611b38578081fd5b81356115e281611fd2565b600060208284031215611b54578081fd5b81516115e281611fd2565b600060208284031215611b70578081fd5b5035919050565b60008151808452611b8f816020860160208601611efa565b601f01601f19169290920160200192915050565b60008351611bb5818460208801611efa565b835190830190611bc9818360208801611efa565b01949350505050565b60008451611be4818460208901611efa565b845190830190611bf8818360208901611efa565b8451910190611c0b818360208801611efa565b0195945050505050565b7f646174613a6170706c69636174696f6e2f6a736f6e3b6261736536342c000000815260008251611c4d81601d850160208701611efa565b91909101601d0192915050565b6f7b226e616d65223a224e46546978202360801b81528251600090611c86816010850160208801611efa565b7f222c20226465736372697074696f6e223a2241204e46542d706f7765726564206010918401918201527203a34b1b5b2ba34b7339039bcb9ba32b691161606d1b60308201527f2274726163697473223a205b7b2274726169745f74797065223a22507572636860438201527f61736564222c202276616c7565223a2274727565227d5d2c200000000000000060638201527f22696d616765223a2022646174613a696d6167652f7376672b786d6c3b626173607c82015263194d8d0b60e21b609c8201528351611d5e8160a0840160208801611efa565b6222207d60e81b60a0929091019182015260a301949350505050565b6001600160a01b0385811682528416602082015260408101839052608060608201819052600090611dad90830184611b77565b9695505050505050565b6020815260006115e26020830184611b77565b604081526000611ddd6040830185611b77565b8281036020840152611def8185611b77565b95945050505050565b60208082526032908201527f4552433732313a207472616e7366657220746f206e6f6e20455243373231526560408201527131b2b4bb32b91034b6b83632b6b2b73a32b960711b606082015260800190565b6020808252602e908201527f4552433732313a2063616c6c6572206973206e6f7420746f6b656e206f776e6560408201526d1c881b9bdc88185c1c1c9bdd995960921b606082015260800190565b60008219821115611eab57611eab611f90565b500190565b600082611ebf57611ebf611fa6565b500490565b6000816000190483118215151615611ede57611ede611f90565b500290565b600082821015611ef557611ef5611f90565b500390565b60005b83811015611f15578181015183820152602001611efd565b83811115610b755750506000910152565b600181811c90821680611f3a57607f821691505b60208210811415611f5b57634e487b7160e01b600052602260045260246000fd5b50919050565b6000600019821415611f7557611f75611f90565b5060010190565b600082611f8b57611f8b611fa6565b500690565b634e487b7160e01b600052601160045260246000fd5b634e487b7160e01b600052601260045260246000fd5b634e487b7160e01b600052604160045260246000fd5b6001600160e01b031981168114610d1657600080fdfe3c7376672076696577426f783d2230203020313030203130302220786d6c6e733d22687474703a2f2f7777772e77332e6f72672f323030302f737667223e3c7465787420793d223530223e4142434445464748494a4b4c4d4e4f505152535455565758595a6162636465666768696a6b6c6d6e6f707172737475767778797a303132333435363738392b2fa2646970667358221220bc7035d6e7a0c46297ce46f11ae7812e7f29a5ea06708b2e796c8b5b25e0a8ae64736f6c63430008040033",
  "linkReferences": {},
  "deployedLinkReferences": {}
}