{
  "_format": "hh-sol-artifact-1",
  "contractName": "NFTixBooth",
  "sourceName": "contracts/NFTixBooth.sol",
  "abi": [
    {
      "inputs": [],
      "stateMutability": "nonpayable",
      "type": "constructor"
    },
    {
      "anonymous": false,
      "inputs": [
        {
          "indexed": true,
          "internalType": "address",
          "name": "owner",
          "type": "address"
        },
        {
          "indexed": true,
          "internalType": "address",
          "name": "approved",
          "type": "address"
        },
        {
          "indexed": true,
          "internalType": "uint256",
          "name": "tokenId",
          "type": "uint256"
        }
      ],
      "name": "Approval",
      "type": "event"
    },
    {
      "anonymous": false,
      "inputs": [
        {
          "indexed": true,
          "internalType": "address",
          "name": "owner",
          "type": "address"
        },
        {
          "indexed": true,
          "internalType": "address",
          "name": "operator",
          "type": "address"
        },
        {
          "indexed": false,
          "internalType": "bool",
          "name": "approved",
          "type": "bool"
        }
      ],
      "name": "ApprovalForAll",
      "type": "event"
    },
    {
      "anonymous": false,
      "inputs": [
        {
          "indexed": true,
          "internalType": "address",
          "name": "previousOwner",
          "type": "address"
        },
        {
          "indexed": true,
          "internalType": "address",
          "name": "newOwner",
          "type": "address"
        }
      ],
      "name": "OwnershipTransferred",
      "type": "event"
    },
    {
      "anonymous": false,
      "inputs": [
        {
          "indexed": true,
          "internalType": "address",
          "name": "from",
          "type": "address"
        },
        {
          "indexed": true,
          "internalType": "address",
          "name": "to",
          "type": "address"
        },
        {
          "indexed": true,
          "internalType": "uint256",
          "name": "tokenId",
          "type": "uint256"
        }
      ],
      "name": "Transfer",
      "type": "event"
    },
    {
      "inputs": [
        {
          "internalType": "address",
          "name": "to",
          "type": "address"
        },
        {
          "internalType": "uint256",
          "name": "tokenId",
          "type": "uint256"
        }
      ],
      "name": "approve",
      "outputs": [],
      "stateMutability": "nonpayable",
      "type": "function"
    },
    {
      "inputs": [],
      "name": "availableTicketCount",
      "outputs": [
        {
          "internalType": "uint256",
          "name": "",
          "type": "uint256"
        }
      ],
      "stateMutability": "view",
      "type": "function"
    },
    {
      "inputs": [],
      "name": "availableTickets",
      "outputs": [
        {
          "internalType": "uint256",
          "name": "",
          "type": "uint256"
        }
      ],
      "stateMutability": "view",
      "type": "function"
    },
    {
      "inputs": [
        {
          "internalType": "address",
          "name": "owner",
          "type": "address"
        }
      ],
      "name": "balanceOf",
      "outputs": [
        {
          "internalType": "uint256",
          "name": "",
          "type": "uint256"
        }
      ],
      "stateMutability": "view",
      "type": "function"
    },
    {
      "inputs": [],
      "name": "closeSale",
      "outputs": [],
      "stateMutability": "nonpayable",
      "type": "function"
    },
    {
      "inputs": [
        {
          "internalType": "uint256",
          "name": "tokenId",
          "type": "uint256"
        }
      ],
      "name": "getApproved",
      "outputs": [
        {
          "internalType": "address",
          "name": "",
          "type": "address"
        }
      ],
      "stateMutability": "view",
      "type": "function"
    },
    {
      "inputs": [
        {
          "internalType": "address",
          "name": "",
          "type": "address"
        },
        {
          "internalType": "uint256",
          "name": "",
          "type": "uint256"
        }
      ],
      "name": "holderTokenIDs",
      "outputs": [
        {
          "internalType": "uint256",
          "name": "",
          "type": "uint256"
        }
      ],
      "stateMutability": "view",
      "type": "function"
    },
    {
      "inputs": [
        {
          "internalType": "address",
          "name": "owner",
          "type": "address"
        },
        {
          "internalType": "address",
          "name": "operator",
          "type": "address"
        }
      ],
      "name": "isApprovedForAll",
      "outputs": [
        {
          "internalType": "bool",
          "name": "",
          "type": "bool"
        }
      ],
      "stateMutability": "view",
      "type": "function"
    },
    {
      "inputs": [],
      "name": "mint",
      "outputs": [],
      "stateMutability": "payable",
      "type": "function"
    },
    {
      "inputs": [],
      "name": "mintPrice",
      "outputs": [
        {
          "internalType": "uint256",
          "name": "",
          "type": "uint256"
        }
      ],
      "stateMutability": "view",
      "type": "function"
    },
    {
      "inputs": [],
      "name": "name",
      "outputs": [
        {
          "internalType": "string",
          "name": "",
          "type": "string"
        }
      ],
      "stateMutability": "view",
      "type": "function"
    },
    {
      "inputs": [],
      "name": "openSale",
      "outputs": [],
      "stateMutability": "nonpayable",
      "type": "function"
    },
    {
      "inputs": [],
      "name": "owner",
      "outputs": [
        {
          "internalType": "address",
          "name": "",
          "type": "address"
        }
      ],
      "stateMutability": "view",
      "type": "function"
    },
    {
      "inputs": [
        {
          "internalType": "uint256",
          "name": "tokenId",
          "type": "uint256"
        }
      ],
      "name": "ownerOf",
      "outputs": [
        {
          "internalType": "address",
          "name": "",
          "type": "address"
        }
      ],
      "stateMutability": "view",
      "type": "function"
    },
    {
      "inputs": [],
      "name": "renounceOwnership",
      "outputs": [],
      "stateMutability": "nonpayable",
      "type": "function"
    },
    {
      "inputs": [
        {
          "internalType": "address",
          "name": "from",
          "type": "address"
        },
        {
          "internalType": "address",
          "name": "to",
          "type": "address"
        },
        {
          "internalType": "uint256",
          "name": "tokenId",
          "type": "uint256"
        }
      ],
      "name": "safeTransferFrom",
      "outputs": [],
      "stateMutability": "nonpayable",
      "type": "function"
    },
    {
      "inputs": [
        {
          "internalType": "address",
          "name": "from",
          "type": "address"
        },
        {
          "internalType": "address",
          "name": "to",
          "type": "address"
        },
        {
          "internalType": "uint256",
          "name": "tokenId",
          "type": "uint256"
        },
        {
          "internalType": "bytes",
          "name": "data",
          "type": "bytes"
        }
      ],
      "name": "safeTransferFrom",
      "outputs": [],
      "stateMutability": "nonpayable",
      "type": "function"
    },
    {
      "inputs": [],
      "name": "saleIsActive",
      "outputs": [
        {
          "internalType": "bool",
          "name": "",
          "type": "bool"
        }
      ],
      "stateMutability": "view",
      "type": "function"
    },
    {
      "inputs": [
        {
          "internalType": "address",
          "name": "operator",
          "type": "address"
        },
        {
          "internalType": "bool",
          "name": "approved",
          "type": "bool"
        }
      ],
      "name": "setApprovalForAll",
      "outputs": [],
      "stateMutability": "nonpayable",
      "type": "function"
    },
    {
      "inputs": [
        {
          "internalType": "bytes4",
          "name": "interfaceId",
          "type": "bytes4"
        }
      ],
      "name": "supportsInterface",
      "outputs": [
        {
          "internalType": "bool",
          "name": "",
          "type": "bool"
        }
      ],
      "stateMutability": "view",
      "type": "function"
    },
    {
      "inputs": [],
      "name": "symbol",
      "outputs": [
        {
          "internalType": "string",
          "name": "",
          "type": "string"
        }
      ],
      "stateMutability": "view",
      "type": "function"
    },
    {
      "inputs": [
        {
          "internalType": "uint256",
          "name": "tokenId",
          "type": "uint256"
        }
      ],
      "name": "tokenURI",
      "outputs": [
        {
          "internalType": "string",
          "name": "",
          "type": "string"
        }
      ],
      "stateMutability": "view",
      "type": "function"
    },
    {
      "inputs": [],
      "name": "totalTicketCount",
      "outputs": [
        {
          "internalType": "uint256",
          "name": "",
          "type": "uint256"
        }
      ],
      "stateMutability": "view",
      "type": "function"
    },
    {
      "inputs": [],
      "name": "totalTickets",
      "outputs": [
        {
          "internalType": "uint256",
          "name": "",
          "type": "uint256"
        }
      ],
      "stateMutability": "view",
      "type": "function"
    },
    {
      "inputs": [
        {
          "internalType": "address",
          "name": "from",
          "type": "address"
        },
        {
          "internalType": "address",
          "name": "to",
          "type": "address"
        },
        {
          "internalType": "uint256",
          "name": "tokenId",
          "type": "uint256"
        }
      ],
      "name": "transferFrom",
      "outputs": [],
      "stateMutability": "nonpayable",
      "type": "function"
    },
    {
      "inputs": [
        {
          "internalType": "address",
          "name": "newOwner",
          "type": "address"
        }
      ],
      "name": "transferOwnership",
      "outputs": [],
      "stateMutability": "nonpayable",
      "type": "function"
    }
  ],
  "bytecode": "0x60806040526009805460ff19169055600a808055600b5567011c37937e080000600c553480156200002f57600080fd5b50604080518082018252600581526409c8ca8d2f60db1b60208083019182528351808501909452600484526309c8ca8b60e31b9084015281519192916200007991600091620001c8565b5080516200008f906001906020840190620001c8565b505050620000ac620000a6620000f560201b60201c565b620000f9565b620000c360086200014b60201b62000cc61760201c565b620000ef620000de60086200015460201b62000ccf1760201c565b6200015860201b62000cd31760201c565b620002ab565b3390565b600780546001600160a01b038381166001600160a01b0319831681179093556040519116919082907f8be0079c531659141344cd1fd0a4f28419497f9722a3daafe3b4186f6b6457e090600090a35050565b80546001019055565b5490565b620001a4816040516024016200017091815260200190565b60408051601f198184030181529190526020810180516001600160e01b0390811663f82c50f160e01b17909152620001a716565b50565b80516a636f6e736f6c652e6c6f67602083016000808483855afa5050505050565b828054620001d6906200026e565b90600052602060002090601f016020900481019282620001fa576000855562000245565b82601f106200021557805160ff191683800117855562000245565b8280016001018555821562000245579182015b828111156200024557825182559160200191906001019062000228565b506200025392915062000257565b5090565b5b8082111562000253576000815560010162000258565b600181811c908216806200028357607f821691505b60208210811415620002a557634e487b7160e01b600052602260045260246000fd5b50919050565b61205680620002bb6000396000f3fe6080604052600436106101815760003560e01c806370a08231116100d1578063b88d4fde1161008a578063e985e9c511610064578063e985e9c514610412578063eb8d24441461045b578063ee55efee14610475578063f2fde38b1461048a57600080fd5b8063b88d4fde146103bc578063c87b56dd146103dc578063dd11247e146103fc57600080fd5b806370a0823114610314578063715018a61461033457806382ac0bb8146103495780638da5cb5b1461036957806395d89b4114610387578063a22cb4651461039c57600080fd5b8063167ff46f1161013e5780633d721ecd116101185780633d721ecd146102a957806342842e0e146102be5780636352211e146102de5780636817c76c146102fe57600080fd5b8063167ff46f1461025e57806323b872dd146102735780633cfa7e011461029357600080fd5b806301ffc9a71461018657806306fdde03146101bb578063081812fc146101dd578063095ea7b3146102155780631249c58b1461023757806314558fab1461023f575b600080fd5b34801561019257600080fd5b506101a66101a1366004611ad4565b6104aa565b60405190151581526020015b60405180910390f35b3480156101c757600080fd5b506101d06104fc565b6040516101b29190611d64565b3480156101e957600080fd5b506101fd6101f8366004611b0c565b61058e565b6040516001600160a01b0390911681526020016101b2565b34801561022157600080fd5b50610235610230366004611aab565b6105b5565b005b6102356106d0565b34801561024b57600080fd5b50600a545b6040519081526020016101b2565b34801561026a57600080fd5b50610235610944565b34801561027f57600080fd5b5061023561028e366004611961565b61095b565b34801561029f57600080fd5b50610250600b5481565b3480156102b557600080fd5b50600b54610250565b3480156102ca57600080fd5b506102356102d9366004611961565b61098c565b3480156102ea57600080fd5b506101fd6102f9366004611b0c565b6109a7565b34801561030a57600080fd5b50610250600c5481565b34801561032057600080fd5b5061025061032f366004611915565b610a07565b34801561034057600080fd5b50610235610a8d565b34801561035557600080fd5b50610250610364366004611aab565b610aa1565b34801561037557600080fd5b506007546001600160a01b03166101fd565b34801561039357600080fd5b506101d0610ad2565b3480156103a857600080fd5b506102356103b7366004611a71565b610ae1565b3480156103c857600080fd5b506102356103d736600461199c565b610af0565b3480156103e857600080fd5b506101d06103f7366004611b0c565b610b28565b34801561040857600080fd5b50610250600a5481565b34801561041e57600080fd5b506101a661042d36600461192f565b6001600160a01b03918216600090815260056020908152604080832093909416825291909152205460ff1690565b34801561046757600080fd5b506009546101a69060ff1681565b34801561048157600080fd5b50610235610c39565b34801561049657600080fd5b506102356104a5366004611915565b610c4d565b60006001600160e01b031982166380ac58cd60e01b14806104db57506001600160e01b03198216635b5e139f60e01b145b806104f657506301ffc9a760e01b6001600160e01b03198316145b92915050565b60606000805461050b90611ed3565b80601f016020809104026020016040519081016040528092919081815260200182805461053790611ed3565b80156105845780601f1061055957610100808354040283529160200191610584565b820191906000526020600020905b81548152906001019060200180831161056757829003601f168201915b5050505050905090565b600061059982610d18565b506000908152600460205260409020546001600160a01b031690565b60006105c0826109a7565b9050806001600160a01b0316836001600160a01b031614156106335760405162461bcd60e51b815260206004820152602160248201527f4552433732313a20617070726f76616c20746f2063757272656e74206f776e656044820152603960f91b60648201526084015b60405180910390fd5b336001600160a01b038216148061064f575061064f813361042d565b6106c15760405162461bcd60e51b815260206004820152603e60248201527f4552433732313a20617070726f76652063616c6c6572206973206e6f7420746f60448201527f6b656e206f776e6572206e6f7220617070726f76656420666f7220616c6c0000606482015260840161062a565b6106cb8383610d77565b505050565b6000600b54116107175760405162461bcd60e51b81526020600482015260126024820152714e6f7420656e6f756768207469636b65747360701b604482015260640161062a565b600c543410156107605760405162461bcd60e51b81526020600482015260146024820152734e6f7420656e6f756768206d697420707269636560601b604482015260640161062a565b60095460ff166107b25760405162461bcd60e51b815260206004820152601960248201527f205469636b65747320617265206e6f74206f6e2073616c652100000000000000604482015260640161062a565b6107ba611839565b6040518060800160405280604b8152602001611f96604b913981526008546107e690610de5565b610de5565b6020828101918252604080518082018252600d81526c1e17ba32bc3a1f1e17b9bb339f60991b8184015281850181905284519351915160009461082d949093929101611b7f565b6040516020818303038152906040529050600061084982610eff565b90506108796040518060400160405280600c81526020016b656e636f646564496d61676560a01b81525082611061565b60006108b061088a6107e160085490565b8360405160200161089c929190611c07565b604051602081830303815290604052610eff565b90506000816040516020016108c59190611bc2565b60408051601f198184030181528282019091526008825267746f6b656e55524960c01b602083015291506108f99082611061565b61090b3361090660085490565b6110a6565b61091d61091760085490565b826110c0565b61092b600880546001019055565b6001600b5461093a9190611e90565b600b555050505050565b61094c61115a565b6009805460ff19166001179055565b61096533826111b4565b6109815760405162461bcd60e51b815260040161062a90611df7565b6106cb838383611232565b6106cb83838360405180602001604052806000815250610af0565b6000818152600260205260408120546001600160a01b0316806104f65760405162461bcd60e51b8152602060048201526018602482015277115490cdcc8c4e881a5b9d985b1a59081d1bdad95b88125160421b604482015260640161062a565b60006001600160a01b038216610a715760405162461bcd60e51b815260206004820152602960248201527f4552433732313a2061646472657373207a65726f206973206e6f7420612076616044820152683634b21037bbb732b960b91b606482015260840161062a565b506001600160a01b031660009081526003602052604090205490565b610a9561115a565b610a9f60006113ce565b565b600d6020528160005260406000208181548110610abd57600080fd5b90600052602060002001600091509150505481565b60606001805461050b90611ed3565b610aec338383611420565b5050565b610afa33836111b4565b610b165760405162461bcd60e51b815260040161062a90611df7565b610b22848484846114ef565b50505050565b6060610b3382610d18565b60008281526006602052604081208054610b4c90611ed3565b80601f0160208091040260200160405190810160405280929190818152602001828054610b7890611ed3565b8015610bc55780601f10610b9a57610100808354040283529160200191610bc5565b820191906000526020600020905b815481529060010190602001808311610ba857829003601f168201915b505050505090506000610be360408051602081019091526000815290565b9050805160001415610bf6575092915050565b815115610c28578082604051602001610c10929190611b50565b60405160208183030381529060405292505050919050565b610c3184611522565b949350505050565b610c4161115a565b6009805460ff19169055565b610c5561115a565b6001600160a01b038116610cba5760405162461bcd60e51b815260206004820152602660248201527f4f776e61626c653a206e6577206f776e657220697320746865207a65726f206160448201526564647265737360d01b606482015260840161062a565b610cc3816113ce565b50565b80546001019055565b5490565b610cc381604051602401610ce991815260200190565b60408051601f198184030181529190526020810180516001600160e01b031663f82c50f160e01b179052611596565b6000818152600260205260409020546001600160a01b0316610cc35760405162461bcd60e51b8152602060048201526018602482015277115490cdcc8c4e881a5b9d985b1a59081d1bdad95b88125160421b604482015260640161062a565b600081815260046020526040902080546001600160a01b0319166001600160a01b0384169081179091558190610dac826109a7565b6001600160a01b03167f8c5be1e5ebec7d5bd14f71427d1e84f3dd0314c0f7b2291e5b200ac8c7c3b92560405160405180910390a45050565b606081610e095750506040805180820190915260018152600360fc1b602082015290565b8160005b8115610e335780610e1d81611f0e565b9150610e2c9050600a83611e5d565b9150610e0d565b60008167ffffffffffffffff811115610e5c57634e487b7160e01b600052604160045260246000fd5b6040519080825280601f01601f191660200182016040528015610e86576020820181803683370190505b5090505b8415610c3157610e9b600183611e90565b9150610ea8600a86611f29565b610eb3906030611e45565b60f81b818381518110610ed657634e487b7160e01b600052603260045260246000fd5b60200101906001600160f81b031916908160001a905350610ef8600a86611e5d565b9450610e8a565b6060815160001415610f1f57505060408051602081019091526000815290565b6000604051806060016040528060408152602001611fe16040913990506000600384516002610f4e9190611e45565b610f589190611e5d565b610f63906004611e71565b67ffffffffffffffff811115610f8957634e487b7160e01b600052604160045260246000fd5b6040519080825280601f01601f191660200182016040528015610fb3576020820181803683370190505b509050600182016020820185865187015b8082101561101f576003820191508151603f8160121c168501518453600184019350603f81600c1c168501518453600184019350603f8160061c168501518453600184019350603f8116850151845350600183019250610fc4565b505060038651066001811461103b576002811461104e57611056565b603d6001830353603d6002830353611056565b603d60018303535b509195945050505050565b610aec8282604051602401611077929190611d77565b60408051601f198184030181529190526020810180516001600160e01b0316634b5c427760e01b179052611596565b610aec8282604051806020016040528060008152506115b7565b6000828152600260205260409020546001600160a01b031661113b5760405162461bcd60e51b815260206004820152602e60248201527f45524337323155524953746f726167653a2055524920736574206f66206e6f6e60448201526d32bc34b9ba32b73a103a37b5b2b760911b606482015260840161062a565b600082815260066020908152604090912082516106cb92840190611860565b6007546001600160a01b03163314610a9f5760405162461bcd60e51b815260206004820181905260248201527f4f776e61626c653a2063616c6c6572206973206e6f7420746865206f776e6572604482015260640161062a565b6000806111c0836109a7565b9050806001600160a01b0316846001600160a01b0316148061120757506001600160a01b0380821660009081526005602090815260408083209388168352929052205460ff165b80610c315750836001600160a01b03166112208461058e565b6001600160a01b031614949350505050565b826001600160a01b0316611245826109a7565b6001600160a01b0316146112a95760405162461bcd60e51b815260206004820152602560248201527f4552433732313a207472616e736665722066726f6d20696e636f72726563742060448201526437bbb732b960d91b606482015260840161062a565b6001600160a01b03821661130b5760405162461bcd60e51b8152602060048201526024808201527f4552433732313a207472616e7366657220746f20746865207a65726f206164646044820152637265737360e01b606482015260840161062a565b611316600082610d77565b6001600160a01b038316600090815260036020526040812080546001929061133f908490611e90565b90915550506001600160a01b038216600090815260036020526040812080546001929061136d908490611e45565b909155505060008181526002602052604080822080546001600160a01b0319166001600160a01b0386811691821790925591518493918716917fddf252ad1be2c89b69c2b068fc378daa952ba7f163c4a11628f55a4df523b3ef91a4505050565b600780546001600160a01b038381166001600160a01b0319831681179093556040519116919082907f8be0079c531659141344cd1fd0a4f28419497f9722a3daafe3b4186f6b6457e090600090a35050565b816001600160a01b0316836001600160a01b031614156114825760405162461bcd60e51b815260206004820152601960248201527f4552433732313a20617070726f766520746f2063616c6c657200000000000000604482015260640161062a565b6001600160a01b03838116600081815260056020908152604080832094871680845294825291829020805460ff191686151590811790915591519182527f17307eab39ab6107e8899845ad3d59bd9653f200f220920489ca2b5937696c31910160405180910390a3505050565b6114fa848484611232565b611506848484846115ea565b610b225760405162461bcd60e51b815260040161062a90611da5565b606061152d82610d18565b600061154460408051602081019091526000815290565b90506000815111611564576040518060200160405280600081525061158f565b8061156e84610de5565b60405160200161157f929190611b50565b6040516020818303038152906040525b9392505050565b80516a636f6e736f6c652e6c6f67602083016000808483855afa5050505050565b6115c183836116f7565b6115ce60008484846115ea565b6106cb5760405162461bcd60e51b815260040161062a90611da5565b60006001600160a01b0384163b156116ec57604051630a85bd0160e11b81526001600160a01b0385169063150b7a029061162e903390899088908890600401611d27565b602060405180830381600087803b15801561164857600080fd5b505af1925050508015611678575060408051601f3d908101601f1916820190925261167591810190611af0565b60015b6116d2573d8080156116a6576040519150601f19603f3d011682016040523d82523d6000602084013e6116ab565b606091505b5080516116ca5760405162461bcd60e51b815260040161062a90611da5565b805181602001fd5b6001600160e01b031916630a85bd0160e11b149050610c31565b506001949350505050565b6001600160a01b03821661174d5760405162461bcd60e51b815260206004820181905260248201527f4552433732313a206d696e7420746f20746865207a65726f2061646472657373604482015260640161062a565b6000818152600260205260409020546001600160a01b0316156117b25760405162461bcd60e51b815260206004820152601c60248201527f4552433732313a20746f6b656e20616c7265616479206d696e74656400000000604482015260640161062a565b6001600160a01b03821660009081526003602052604081208054600192906117db908490611e45565b909155505060008181526002602052604080822080546001600160a01b0319166001600160a01b03861690811790915590518392907fddf252ad1be2c89b69c2b068fc378daa952ba7f163c4a11628f55a4df523b3ef908290a45050565b60405180606001604052806003905b60608152602001906001900390816118485790505090565b82805461186c90611ed3565b90600052602060002090601f01602090048101928261188e57600085556118d4565b82601f106118a757805160ff19168380011785556118d4565b828001600101855582156118d4579182015b828111156118d45782518255916020019190600101906118b9565b506118e09291506118e4565b5090565b5b808211156118e057600081556001016118e5565b80356001600160a01b038116811461191057600080fd5b919050565b600060208284031215611926578081fd5b61158f826118f9565b60008060408385031215611941578081fd5b61194a836118f9565b9150611958602084016118f9565b90509250929050565b600080600060608486031215611975578081fd5b61197e846118f9565b925061198c602085016118f9565b9150604084013590509250925092565b600080600080608085870312156119b1578081fd5b6119ba856118f9565b93506119c8602086016118f9565b925060408501359150606085013567ffffffffffffffff808211156119eb578283fd5b818701915087601f8301126119fe578283fd5b813581811115611a1057611a10611f69565b604051601f8201601f19908116603f01168101908382118183101715611a3857611a38611f69565b816040528281528a6020848701011115611a50578586fd5b82602086016020830137918201602001949094529598949750929550505050565b60008060408385031215611a83578182fd5b611a8c836118f9565b915060208301358015158114611aa0578182fd5b809150509250929050565b60008060408385031215611abd578182fd5b611ac6836118f9565b946020939093013593505050565b600060208284031215611ae5578081fd5b813561158f81611f7f565b600060208284031215611b01578081fd5b815161158f81611f7f565b600060208284031215611b1d578081fd5b5035919050565b60008151808452611b3c816020860160208601611ea7565b601f01601f19169290920160200192915050565b60008351611b62818460208801611ea7565b835190830190611b76818360208801611ea7565b01949350505050565b60008451611b91818460208901611ea7565b845190830190611ba5818360208901611ea7565b8451910190611bb8818360208801611ea7565b0195945050505050565b7f646174613a6170706c69636174696f6e2f6a736f6e3b6261736536342c000000815260008251611bfa81601d850160208701611ea7565b91909101601d0192915050565b6f7b226e616d65223a224e46546978202360801b81528251600090611c33816010850160208801611ea7565b7f222c20226465736372697074696f6e223a2241204e46542d706f7765726564206010918401918201527203a34b1b5b2ba34b7339039bcb9ba32b691161606d1b60308201527f2274726163697473223a205b7b2274726169745f74797065223a22507572636860438201527f61736564222c202276616c7565223a2274727565227d5d2c200000000000000060638201527f22696d616765223a2022646174613a696d6167652f7376672b786d6c3b626173607c82015263194d8d0b60e21b609c8201528351611d0b8160a0840160208801611ea7565b6222207d60e81b60a0929091019182015260a301949350505050565b6001600160a01b0385811682528416602082015260408101839052608060608201819052600090611d5a90830184611b24565b9695505050505050565b60208152600061158f6020830184611b24565b604081526000611d8a6040830185611b24565b8281036020840152611d9c8185611b24565b95945050505050565b60208082526032908201527f4552433732313a207472616e7366657220746f206e6f6e20455243373231526560408201527131b2b4bb32b91034b6b83632b6b2b73a32b960711b606082015260800190565b6020808252602e908201527f4552433732313a2063616c6c6572206973206e6f7420746f6b656e206f776e6560408201526d1c881b9bdc88185c1c1c9bdd995960921b606082015260800190565b60008219821115611e5857611e58611f3d565b500190565b600082611e6c57611e6c611f53565b500490565b6000816000190483118215151615611e8b57611e8b611f3d565b500290565b600082821015611ea257611ea2611f3d565b500390565b60005b83811015611ec2578181015183820152602001611eaa565b83811115610b225750506000910152565b600181811c90821680611ee757607f821691505b60208210811415611f0857634e487b7160e01b600052602260045260246000fd5b50919050565b6000600019821415611f2257611f22611f3d565b5060010190565b600082611f3857611f38611f53565b500690565b634e487b7160e01b600052601160045260246000fd5b634e487b7160e01b600052601260045260246000fd5b634e487b7160e01b600052604160045260246000fd5b6001600160e01b031981168114610cc357600080fdfe3c7376672076696577426f783d2230203020313030203130302220786d6c6e733d22687474703a2f2f7777772e77332e6f72672f323030302f737667223e3c7465787420793d223530223e4142434445464748494a4b4c4d4e4f505152535455565758595a6162636465666768696a6b6c6d6e6f707172737475767778797a303132333435363738392b2fa264697066735822122027bd6176fc84fefa66935c1e69f9dd78786127a8ef209d417571862afdd0783364736f6c63430008040033",
  "linkReferences": {},
  "deployedLinkReferences": {}
}